{
  "contractName": "Voting",
  "abi": [
    {
      "inputs": [],
      "payable": false,
      "stateMutability": "nonpayable",
      "type": "constructor"
    },
    {
      "anonymous": false,
      "inputs": [
        {
          "indexed": false,
          "internalType": "string",
          "name": "name",
          "type": "string"
        }
      ],
      "name": "CandidateAdded",
      "type": "event"
    },
    {
      "anonymous": false,
      "inputs": [],
      "name": "ElectionEnded",
      "type": "event"
    },
    {
      "anonymous": false,
      "inputs": [],
      "name": "ElectionStarted",
      "type": "event"
    },
    {
      "anonymous": false,
      "inputs": [
        {
          "indexed": false,
          "internalType": "address",
          "name": "voter",
          "type": "address"
        },
        {
          "indexed": false,
          "internalType": "uint256",
          "name": "candidateId",
          "type": "uint256"
        }
      ],
      "name": "Voted",
      "type": "event"
    },
    {
      "anonymous": false,
      "inputs": [
        {
          "indexed": false,
          "internalType": "address",
          "name": "voter",
          "type": "address"
        }
      ],
      "name": "VoterRegistered",
      "type": "event"
    },
    {
      "constant": true,
      "inputs": [],
      "name": "admin",
      "outputs": [
        {
          "internalType": "address",
          "name": "",
          "type": "address"
        }
      ],
      "payable": false,
      "stateMutability": "view",
      "type": "function"
    },
    {
      "constant": true,
      "inputs": [
        {
          "internalType": "uint256",
          "name": "",
          "type": "uint256"
        }
      ],
      "name": "candidates",
      "outputs": [
        {
          "internalType": "string",
          "name": "name",
          "type": "string"
        },
        {
          "internalType": "uint256",
          "name": "voteCount",
          "type": "uint256"
        }
      ],
      "payable": false,
      "stateMutability": "view",
      "type": "function"
    },
    {
      "constant": true,
      "inputs": [],
      "name": "electionActive",
      "outputs": [
        {
          "internalType": "bool",
          "name": "",
          "type": "bool"
        }
      ],
      "payable": false,
      "stateMutability": "view",
      "type": "function"
    },
    {
      "constant": true,
      "inputs": [
        {
          "internalType": "address",
          "name": "",
          "type": "address"
        }
      ],
      "name": "hasVoted",
      "outputs": [
        {
          "internalType": "bool",
          "name": "",
          "type": "bool"
        }
      ],
      "payable": false,
      "stateMutability": "view",
      "type": "function"
    },
    {
      "constant": true,
      "inputs": [
        {
          "internalType": "address",
          "name": "",
          "type": "address"
        }
      ],
      "name": "registeredVoters",
      "outputs": [
        {
          "internalType": "bool",
          "name": "",
          "type": "bool"
        }
      ],
      "payable": false,
      "stateMutability": "view",
      "type": "function"
    },
    {
      "constant": false,
      "inputs": [
        {
          "internalType": "string",
          "name": "_name",
          "type": "string"
        }
      ],
      "name": "addCandidate",
      "outputs": [],
      "payable": false,
      "stateMutability": "nonpayable",
      "type": "function"
    },
    {
      "constant": false,
      "inputs": [
        {
          "internalType": "address",
          "name": "_voter",
          "type": "address"
        }
      ],
      "name": "registerVoter",
      "outputs": [],
      "payable": false,
      "stateMutability": "nonpayable",
      "type": "function"
    },
    {
      "constant": false,
      "inputs": [],
      "name": "startElection",
      "outputs": [],
      "payable": false,
      "stateMutability": "nonpayable",
      "type": "function"
    },
    {
      "constant": false,
      "inputs": [],
      "name": "endElection",
      "outputs": [],
      "payable": false,
      "stateMutability": "nonpayable",
      "type": "function"
    },
    {
      "constant": false,
      "inputs": [
        {
          "internalType": "uint256",
          "name": "_candidateId",
          "type": "uint256"
        }
      ],
      "name": "vote",
      "outputs": [],
      "payable": false,
      "stateMutability": "nonpayable",
      "type": "function"
    },
    {
      "constant": true,
      "inputs": [],
      "name": "getCandidateCount",
      "outputs": [
        {
          "internalType": "uint256",
          "name": "",
          "type": "uint256"
        }
      ],
      "payable": false,
      "stateMutability": "view",
      "type": "function"
    },
    {
      "constant": true,
      "inputs": [
        {
          "internalType": "uint256",
          "name": "_index",
          "type": "uint256"
        }
      ],
      "name": "getCandidate",
      "outputs": [
        {
          "internalType": "string",
          "name": "",
          "type": "string"
        },
        {
          "internalType": "uint256",
          "name": "",
          "type": "uint256"
        }
      ],
      "payable": false,
      "stateMutability": "view",
      "type": "function"
    },
    {
      "constant": true,
      "inputs": [],
      "name": "getResults",
      "outputs": [
        {
          "internalType": "string[]",
          "name": "",
          "type": "string[]"
        },
        {
          "internalType": "uint256[]",
          "name": "",
          "type": "uint256[]"
        }
      ],
      "payable": false,
      "stateMutability": "view",
      "type": "function"
    }
  ],
  "bytecode": "0x608060405234801561001057600080fd5b50336000806101000a81548173ffffffffffffffffffffffffffffffffffffffff021916908373ffffffffffffffffffffffffffffffffffffffff1602179055506116a4806100606000396000f3fe608060405234801561001057600080fd5b50600436106100cf5760003560e01c8063462e91ec1161008c57806362d73eb81161006657806362d73eb8146102015780637ed628bb1461020b578063a9ff6df114610229578063f851a44014610259576100cf565b8063462e91ec146101bc5780634717f97c146101d857806359f78468146101f7576100cf565b80630121b93f146100d457806309eef43e146100f057806330a56347146101205780633477ee2e1461013e57806335b8e8201461016f57806338db6dd3146101a0575b600080fd5b6100ee60048036036100e99190810190610ece565b610277565b005b61010a60048036036101059190810190610e64565b6104ed565b60405161011791906112e7565b60405180910390f35b61012861050d565b6040516101359190611444565b60405180910390f35b61015860048036036101539190810190610ece565b61051a565b604051610166929190611354565b60405180910390f35b61018960048036036101849190810190610ece565b6105e3565b604051610197929190611324565b60405180910390f35b6101ba60048036036101b59190810190610e64565b610721565b005b6101d660048036036101d19190810190610e8d565b610842565b005b6101e0610978565b6040516101ee9291906112b0565b60405180910390f35b6101ff610b20565b005b610209610bf7565b005b610213610ccf565b60405161022091906112e7565b60405180910390f35b610243600480360361023e9190810190610e64565b610ce2565b60405161025091906112e7565b60405180910390f35b610261610d02565b60405161026e919061126c565b60405180910390f35b60011515600060149054906101000a900460ff161515146102cd576040517f08c379a00000000000000000000000000000000000000000000000000000000081526004016102c490611404565b60405180910390fd5b600260003373ffffffffffffffffffffffffffffffffffffffff1673ffffffffffffffffffffffffffffffffffffffff16815260200190815260200160002060009054906101000a900460ff16610359576040517f08c379a0000000000000000000000000000000000000000000000000000000008152600401610350906113e4565b60405180910390fd5b600360003373ffffffffffffffffffffffffffffffffffffffff1673ffffffffffffffffffffffffffffffffffffffff16815260200190815260200160002060009054906101000a900460ff16156103e6576040517f08c379a00000000000000000000000000000000000000000000000000000000081526004016103dd906113c4565b60405180910390fd5b600180549050811061042d576040517f08c379a000000000000000000000000000000000000000000000000000000000815260040161042490611424565b60405180910390fd5b600180828154811061043b57fe5b9060005260206000209060020201600101600082825401925050819055506001600360003373ffffffffffffffffffffffffffffffffffffffff1673ffffffffffffffffffffffffffffffffffffffff16815260200190815260200160002060006101000a81548160ff0219169083151502179055507f4d99b957a2bc29a30ebd96a7be8e68fe50a3c701db28a91436490b7d53870ca433826040516104e2929190611287565b60405180910390a150565b60036020528060005260406000206000915054906101000a900460ff1681565b6000600180549050905090565b6001818154811061052757fe5b9060005260206000209060020201600091509050806000018054600181600116156101000203166002900480601f0160208091040260200160405190810160405280929190818152602001828054600181600116156101000203166002900480156105d35780601f106105a8576101008083540402835291602001916105d3565b820191906000526020600020905b8154815290600101906020018083116105b657829003601f168201915b5050505050908060010154905082565b60606000600180549050831061062e576040517f08c379a000000000000000000000000000000000000000000000000000000000815260040161062590611384565b60405180910390fd5b610636610d27565b6001848154811061064357fe5b9060005260206000209060020201604051806040016040529081600082018054600181600116156101000203166002900480601f0160208091040260200160405190810160405280929190818152602001828054600181600116156101000203166002900480156106f55780601f106106ca576101008083540402835291602001916106f5565b820191906000526020600020905b8154815290600101906020018083116106d857829003601f168201915b505050505081526020016001820154815250509050806000015181602001518191509250925050915091565b6000809054906101000a900473ffffffffffffffffffffffffffffffffffffffff1673ffffffffffffffffffffffffffffffffffffffff163373ffffffffffffffffffffffffffffffffffffffff16146107b0576040517f08c379a00000000000000000000000000000000000000000000000000000000081526004016107a7906113a4565b60405180910390fd5b6001600260008373ffffffffffffffffffffffffffffffffffffffff1673ffffffffffffffffffffffffffffffffffffffff16815260200190815260200160002060006101000a81548160ff0219169083151502179055507fb6be2187d059cc2a55fe29e0e503b566e1e0f8c8780096e185429350acffd3dd81604051610837919061126c565b60405180910390a150565b6000809054906101000a900473ffffffffffffffffffffffffffffffffffffffff1673ffffffffffffffffffffffffffffffffffffffff163373ffffffffffffffffffffffffffffffffffffffff16146108d1576040517f08c379a00000000000000000000000000000000000000000000000000000000081526004016108c8906113a4565b60405180910390fd5b600160405180604001604052808381526020016000815250908060018154018082558091505090600182039060005260206000209060020201600090919290919091506000820151816000019080519060200190610930929190610d41565b50602082015181600101555050507ff29562dad1599aea0ebb142466120aab326d5efa8f839df82a9c064bf78e89388160405161096d9190611302565b60405180910390a150565b606080600060018054905090506060816040519080825280602002602001820160405280156109bb57816020015b60608152602001906001900390816109a65790505b5090506060826040519080825280602002602001820160405280156109ef5781602001602082028038833980820191505090505b50905060008090505b83811015610b125760018181548110610a0d57fe5b90600052602060002090600202016000018054600181600116156101000203166002900480601f016020809104026020016040519081016040528092919081815260200182805460018160011615610100020316600290048015610ab25780601f10610a8757610100808354040283529160200191610ab2565b820191906000526020600020905b815481529060010190602001808311610a9557829003601f168201915b5050505050838281518110610ac357fe5b602002602001018190525060018181548110610adb57fe5b906000526020600020906002020160010154828281518110610af957fe5b60200260200101818152505080806001019150506109f8565b508181945094505050509091565b6000809054906101000a900473ffffffffffffffffffffffffffffffffffffffff1673ffffffffffffffffffffffffffffffffffffffff163373ffffffffffffffffffffffffffffffffffffffff1614610baf576040517f08c379a0000000000000000000000000000000000000000000000000000000008152600401610ba6906113a4565b60405180910390fd5b60008060146101000a81548160ff0219169083151502179055507f66ec723071e4bb646f7b35d31bc2dee8510979bd8c180edd0690d4f5e802f1e460405160405180910390a1565b6000809054906101000a900473ffffffffffffffffffffffffffffffffffffffff1673ffffffffffffffffffffffffffffffffffffffff163373ffffffffffffffffffffffffffffffffffffffff1614610c86576040517f08c379a0000000000000000000000000000000000000000000000000000000008152600401610c7d906113a4565b60405180910390fd5b6001600060146101000a81548160ff0219169083151502179055507fc475c26aa25ed8e85a7faa790e5f63b5d7ee1025f12821f4c9bfddd36ab4d11260405160405180910390a1565b600060149054906101000a900460ff1681565b60026020528060005260406000206000915054906101000a900460ff1681565b6000809054906101000a900473ffffffffffffffffffffffffffffffffffffffff1681565b604051806040016040528060608152602001600081525090565b828054600181600116156101000203166002900490600052602060002090601f016020900481019282601f10610d8257805160ff1916838001178555610db0565b82800160010185558215610db0579182015b82811115610daf578251825591602001919060010190610d94565b5b509050610dbd9190610dc1565b5090565b610de391905b80821115610ddf576000816000905550600101610dc7565b5090565b90565b600081359050610df581611633565b92915050565b600082601f830112610e0c57600080fd5b8135610e1f610e1a8261148c565b61145f565b91508082526020830160208301858383011115610e3b57600080fd5b610e468382846115e0565b50505092915050565b600081359050610e5e8161164a565b92915050565b600060208284031215610e7657600080fd5b6000610e8484828501610de6565b91505092915050565b600060208284031215610e9f57600080fd5b600082013567ffffffffffffffff811115610eb957600080fd5b610ec584828501610dfb565b91505092915050565b600060208284031215610ee057600080fd5b6000610eee84828501610e4f565b91505092915050565b6000610f03838361105c565b905092915050565b6000610f17838361124e565b60208301905092915050565b610f2c816115aa565b82525050565b610f3b81611562565b82525050565b6000610f4c826114d8565b610f56818561151e565b935083602082028501610f68856114b8565b8060005b85811015610fa45784840389528151610f858582610ef7565b9450610f9083611504565b925060208a01995050600181019050610f6c565b50829750879550505050505092915050565b6000610fc1826114e3565b610fcb818561152f565b9350610fd6836114c8565b8060005b83811015611007578151610fee8882610f0b565b9750610ff983611511565b925050600181019050610fda565b5085935050505092915050565b61101d81611574565b82525050565b600061102e826114f9565b6110388185611551565b93506110488185602086016115ef565b61105181611622565b840191505092915050565b6000611067826114ee565b6110718185611540565b93506110818185602086016115ef565b61108a81611622565b840191505092915050565b60006110a0826114ee565b6110aa8185611551565b93506110ba8185602086016115ef565b6110c381611622565b840191505092915050565b60006110db600d83611551565b91507f496e76616c696420696e646578000000000000000000000000000000000000006000830152602082019050919050565b600061111b601883611551565b91507f4f6e6c792061646d696e2063616e2063616c6c207468697300000000000000006000830152602082019050919050565b600061115b600d83611551565b91507f416c726561647920766f746564000000000000000000000000000000000000006000830152602082019050919050565b600061119b601683611551565b91507f4e6f742061207265676973746572656420766f746572000000000000000000006000830152602082019050919050565b60006111db601683611551565b91507f456c656374696f6e206973206e6f7420616374697665000000000000000000006000830152602082019050919050565b600061121b601483611551565b91507f496e76616c69642063616e6469646174652049440000000000000000000000006000830152602082019050919050565b611257816115a0565b82525050565b611266816115a0565b82525050565b60006020820190506112816000830184610f32565b92915050565b600060408201905061129c6000830185610f23565b6112a9602083018461125d565b9392505050565b600060408201905081810360008301526112ca8185610f41565b905081810360208301526112de8184610fb6565b90509392505050565b60006020820190506112fc6000830184611014565b92915050565b6000602082019050818103600083015261131c8184611023565b905092915050565b6000604082019050818103600083015261133e8185611023565b905061134d602083018461125d565b9392505050565b6000604082019050818103600083015261136e8185611095565b905061137d602083018461125d565b9392505050565b6000602082019050818103600083015261139d816110ce565b9050919050565b600060208201905081810360008301526113bd8161110e565b9050919050565b600060208201905081810360008301526113dd8161114e565b9050919050565b600060208201905081810360008301526113fd8161118e565b9050919050565b6000602082019050818103600083015261141d816111ce565b9050919050565b6000602082019050818103600083015261143d8161120e565b9050919050565b6000602082019050611459600083018461125d565b92915050565b6000604051905081810181811067ffffffffffffffff8211171561148257600080fd5b8060405250919050565b600067ffffffffffffffff8211156114a357600080fd5b601f19601f8301169050602081019050919050565b6000819050602082019050919050565b6000819050602082019050919050565b600081519050919050565b600081519050919050565b600081519050919050565b600081519050919050565b6000602082019050919050565b6000602082019050919050565b600082825260208201905092915050565b600082825260208201905092915050565b600082825260208201905092915050565b600082825260208201905092915050565b600061156d82611580565b9050919050565b60008115159050919050565b600073ffffffffffffffffffffffffffffffffffffffff82169050919050565b6000819050919050565b60006115b5826115bc565b9050919050565b60006115c7826115ce565b9050919050565b60006115d982611580565b9050919050565b82818337600083830152505050565b60005b8381101561160d5780820151818401526020810190506115f2565b8381111561161c576000848401525b50505050565b6000601f19601f8301169050919050565b61163c81611562565b811461164757600080fd5b50565b611653816115a0565b811461165e57600080fd5b5056fea365627a7a7231582067ad3036fd5684b911a5a8cc28067e1ddaca67ad212d38c5d288ee589b6d39046c6578706572696d656e74616cf564736f6c63430005100040",
  "source": "pragma solidity ^0.5.16;\npragma experimental ABIEncoderV2;\n\ncontract Voting {\n    address public admin;\n    bool public electionActive;\n\n    struct Candidate {\n        string name;\n        uint voteCount;\n    }\n\n    Candidate[] public candidates;\n    mapping(address => bool) public registeredVoters;\n    mapping(address => bool) public hasVoted;\n\n    event VoterRegistered(address voter);\n    event CandidateAdded(string name);\n    event Voted(address voter, uint candidateId);\n    event ElectionStarted();\n    event ElectionEnded();\n\n    modifier onlyAdmin() {\n        require(msg.sender == admin, \"Only admin can call this\");\n        _;\n    }\n\n    modifier onlyDuringElection() {\n        require(electionActive == true, \"Election is not active\");\n        _;\n    }\n\n    constructor() public {\n        admin = msg.sender;\n    }\n\n    function addCandidate(string memory _name) public onlyAdmin {\n        candidates.push(Candidate({\n            name: _name,\n            voteCount: 0\n        }));\n        emit CandidateAdded(_name);\n    }\n\n    function registerVoter(address _voter) public onlyAdmin {\n        registeredVoters[_voter] = true;\n        emit VoterRegistered(_voter);\n    }\n\n    function startElection() public onlyAdmin {\n        electionActive = true;\n        emit ElectionStarted();\n    }\n\n    function endElection() public onlyAdmin {\n        electionActive = false;\n        emit ElectionEnded();\n    }\n\n    function vote(uint _candidateId) public onlyDuringElection {\n        require(registeredVoters[msg.sender], \"Not a registered voter\");\n        require(!hasVoted[msg.sender], \"Already voted\");\n        require(_candidateId < candidates.length, \"Invalid candidate ID\");\n\n        candidates[_candidateId].voteCount += 1;\n        hasVoted[msg.sender] = true;\n\n        emit Voted(msg.sender, _candidateId);\n    }\n\n    function getCandidateCount() public view returns (uint) {\n        return candidates.length;\n    }\n\n    function getCandidate(uint _index) public view returns (string memory, uint) {\n        require(_index < candidates.length, \"Invalid index\");\n        Candidate memory c = candidates[_index];\n        return (c.name, c.voteCount);\n    }\n\n    function getResults() public view returns (string[] memory, uint[] memory) {\n        uint len = candidates.length;\n        string[] memory names = new string[](len);\n        uint[] memory votes = new uint[](len);\n\n        for (uint i = 0; i < len; i++) {\n            names[i] = candidates[i].name;\n            votes[i] = candidates[i].voteCount;\n        }\n\n        return (names, votes);\n    }\n}\n",
  "sourcePath": "/home/riyansh/project/IriVoteChain/blockchain/contracts/Voting.sol",
  "compiler": {
    "name": "solc",
    "version": "0.5.16+commit.9c3226ce.Emscripten.clang"
  },
  "schemaVersion": "3.4.16",
  "updatedAt": "2025-06-22T15:00:46.727Z",
  "networkType": "ethereum",
  "devdoc": {
    "methods": {}
  },
  "userdoc": {
    "methods": {}
  }
}